:020000040800F2
:1000000000A0002029180008290500082B05000879
:100010002D0500082F05000831050008000000002C
:100020000000000000000000000000003305000890
:1000300035050008000000003705000839050008F4
:10004000791800087918000879180008791800084C
:10005000791800087918000879180008791800083C
:10006000791800087918000879180008791800082C
:10007000791800087918000879180008791800081C
:10008000791800087918000879180008791800080C
:1000900079180008791800087918000879180008FC
:1000A00079180008791800087918000879180008EC
:1000B00079180008791800087918000879180008DC
:1000C00079180008791800087918000879180008CC
:1000D00079180008791800087918000879180008BC
:1000E00079180008791800087918000879180008AC
:1000F000791800087918000879180008791800089C
:100100000000000000000000000000007918000856
:10011000791800087918000879180008791800087B
:10012000791800087918000879180008791800086B
:10013000791800087918000800000000000000008D
:1001400079180008791800087918000800000000E4
:10015000000000000000000000000000000000009F
:10016000000000000000000079180008791800085D
:1001700079180008000000000000000000000000E6
:080180000000000079180008DE
:1001880070B50D4E0D4D761BB61006D00024013407
:1001980055F8043B9847A642F9D1094E094D761BFC
:1001A80001F068FBB61006D00024013455F8043B72
:1001B8009847A642F9D170BDC4180008C4180008B1
:1001C800C8180008C4180008F0B4860746D0541EA2
:1001D800002A3CD0CAB2034602E014F1FF3436D3F9
:1001E80003F8012B9D07F8D1032C29D9CDB245EA94
:1001F80005250F2C45EA054533D9A4F11006360923
:1002080003F1200707EB061703F1100242E9045532
:1002180042E902551032BA42F8D1721C14F00C0FA0
:1002280003EB021204F00F0613D0331F23F003036D
:100238000433134442F8045B9342FBD106F00304F1
:100248002CB1C9B21C4403F8011B9C42FBD1F0BC81
:10025800704734461346002CF3D1F8E7144603469A
:10026800C2E71A462646E0E710B5054C237833B9AD
:10027800044B13B10448AFF300800123237010BD71
:100288000C000020000000007C18000808B5034B93
:100298001BB103490348AFF3008008BD000000000C
:1002A800100000207C18000870B58AB0002405945E
:1002B8000694079408940994294B5A6942F4001249
:1002C8005A615A6902F400120092009A5A6942F47B
:1002D80000225A615A6902F400220192019A5A696D
:1002E80042F480025A615A6902F480020292029A28
:1002F8005A6942F400325A615A6902F40032039290
:10030800039A5A6942F480225A615B6903F4802394
:100318000493049B134D22464FF60871284601F0BA
:1003280033F9372305934FF490130693079405A9DF
:10033800284601F045F84FF60873059301260696FE
:100348000794089405A9284601F03AF805960694FA
:10035800079405A94FF0904001F032F80AB070BD3B
:10036800001002400010004838B5054600240BE094
:100378004FF48071A14045FA04F202F0010289B2FB
:10038800034801F001F90134072CF1DD38BD00BF45
:100398000010004872B6FEE708B51148114B03601B
:1003A800114B4360002383600122C26003614361F3
:1003B8008361C361036200F096F950B900210848CF
:1003C80000F0EFF938B90021054800F018FA20B913
:1003D80008BDFFF7DFFFFFF7DDFFFFF7DBFF00BF1B
:1003E80028000020005400400E09002008B50F48DE
:1003F8000F4B03604FF482734360002383604FF414
:100408004072C260036143614FF400728261082246
:10041800C2610362436283620721C162036342636C
:1004280001F016F900B908BDFFF7B4FF600300201A
:100438000030014008B50848084B036008234360B2
:1004480002238360036100238361036201F074F96E
:1004580000B908BDFFF79EFF74000020005C004053
:1004680000B59FB02822002114A8FFF7ADFE002197
:100478000F9110911191129113913C226846FFF748
:10048800A3FE032314934FF4A02315930123189379
:100498001023199302231B934FF480331C934FF4BA
:1004A80080131D9314A800F035FAE0B90F230F93B9
:1004B80002231093002311934FF480621292139336
:1004C80001210FA800F078FD78B90A4B00930023AA
:1004D80007934FF480030E93684600F041FE30B94D
:1004E8001FB05DF804FBFFF755FFFFF753FFFFF759
:1004F80051FF00BF2000020008B500F0D3F9FFF754
:10050800AFFFFFF7D1FEFFF747FFFFF76FFFFFF7DA
:1005180091FF5520FFF728FF642000F0E7F9FBE77B
:10052800FEE7FEE7FEE7FEE7FEE770477047704725
:1005380008B500F0C9F908BD00B583B00C4B9A693D
:1005480042F001029A619A6902F001020092009A4F
:10055800DA6942F08052DA61DB6903F08053019373
:10056800019B072001F016F803B05DF804FB00BFFB
:100578000010024010B588B000230393049305933C
:10058800069307930268134B9A4201D008B010BD36
:10059800114C636943F480236361636903F4802326
:1005A8000193019BC0230393122304930123059312
:1005B800032306930423079303A9084800F000FFC8
:1005C800E36943F40013E361E36903F4001302935E
:1005D800029BDBE700540040001002400004004882
:1005E80000B589B0002303930493059306930793FA
:1005F8000268144B9A4202D009B05DF804FB03F577
:1006080060439A6942F480529A619A6902F480526E
:100618000192019A5A6942F400325A615B6903F403
:1006280000330293029BE0230393022304930323E2
:1006380006930523079303A94FF0904000F0C0FEEE
:10064800DAE700BF0030014010B588B000230393FB
:1006580004930593069307930268134B9A4201D0BB
:1006680008B010BD114C636943F4003363616369DA
:1006780003F400330193019B4FF4C0530393022307
:100688000493032306930E23079303A94FF0904086
:1006980000F096FEE36943F40003E361E36903F4C1
:1006A80000030293029BDBE7005C0040001002405D
:1006B800B0F8403023F47C535B045B0CA0F8403066
:1006C8000020704784B0844601A880E80E0001230A
:1006D800ACF840300020ACF84000ACF84400ACF86E
:1006E800500004B07047002859D010B5044690F85F
:1006F8004130002B43D0242384F84130226813680A
:1007080023F0010313606368226823F070631361A8
:100718002268936823F400439360E368012B33D085
:10072800A368226843F404439360E368022B31D042
:100738002268536843F0007343F40043536022680F
:10074800D36823F40043D360236962691343A16922
:10075800226843EA0123D360E369216A22680B43D4
:1007680013602268136843F001031360002060647B
:10077800202384F84130206384F8420010BD80F8BB
:100788004030FFF7F7FEB6E7A368226843F400435A
:100798009360CAE723684FF400625A60C8E70120F3
:1007A800704790F84130DBB2202B24D190F84030CC
:1007B800012B22D0012380F84030242380F84130D7
:1007C8000268136823F0010313600268136823F4B6
:1007D8008053136002681368194311600268136834
:1007E80043F001031360202380F84130002380F890
:1007F800403018467047022070470220704790F832
:100808004130DBB2202B22D190F84030012B20D090
:10081800012380F84030242380F8413002681368AF
:1008280023F0010313600268136823F4706343EA3A
:10083800012111600268136843F00103136020234B
:1008480080F84130002380F8403018467047022075
:10085800704702207047000010B504460E4B187808
:100868004FF47A73B3FBF0F30C4A1068B0FBF3F063
:1008780000F0DAFE68B90F2C01D901200AE0002245
:1008880021464FF0FF3000F097FE054B1C6000201A
:1008980000E0012010BD00BF00000020080000207B
:1008A8000400002008B5074A136843F010031360DA
:1008B800032000F06FFE0020FFF7CEFFFFF73CFE9D
:1008C800002008BD00200240034A1168034B1B7832
:1008D8000B441360704700BFC403002000000020D1
:1008E800014B1868704700BFC403002038B50446A0
:1008F800FFF7F6FF0546B4F1FF3F02D0044B1B7823
:100908001C44FFF7EDFF401BA042FAD338BD00BFDF
:1009180000000020002800F0018370B582B0044672
:10092800036813F0010F3BD0B54B5B6803F00C0371
:10093800042B1ED0B24B5B6803F00C03082B13D0BA
:100948006368B3F5803F68D0002B40F0928003F1D4
:10095800804303F504331A6822F480321A601A6857
:1009680022F480221A605DE0A54B5B6813F4803F97
:10097800E6D04FF4003393FAA3F3A14B19684FF470
:10098800003393FAA3F3B3FA83F303F01F030122AE
:1009980002FA03F30B4203D06368002B00F0C08215
:1009A800236813F0020F00F0C580954B5B6813F0C5
:1009B8000C0F00F09C80924B5B6803F00C03082B33
:1009C80000F08F802369002B00F0F280012292FA58
:1009D800A2F3B3FA83F303F1845303F584139B0062
:1009E8001A60FFF77DFF0546022393FAA3F3844BB1
:1009F8001968022393FAA3F3B3FA83F303F01F03EE
:100A0800012202FA03F30B4240F0C380FFF768FFAC
:100A1800401B0228E8D903208BE2794A136843F483
:100A280080331360764AD36A23F00F03A1680B431F
:100A3800D3626368002B36D0FFF752FF05464FF4A8
:100A4800003393FAA3F36E4B19684FF4003393FA0B
:100A5800A3F3B3FA83F303F01F03012202FA03F3AB
:100A68000B429DD1FFF73CFF401B6428E7D90320C8
:100A78005FE2B3F5A02F09D0614B1A6822F48032E7
:100A88001A601A6822F480221A60CBE703F18043C7
:100A9800A3F53C331A6842F480221A601A6842F4BB
:100AA80080321A60BEE7FFF71BFF05464FF400339C
:100AB80093FAA3F3524B19684FF4003393FAA3F354
:100AC800B3FA83F303F01F03012202FA03F30B4284
:100AD8003FF466AFFFF704FF401B6428E6D9032004
:100AE80027E2474B5B6813F4803F7FF46BAF022328
:100AF80093FAA3F3424B1968022393FAA3F3B3FAC8
:100B080083F303F01F03012202FA03F30B4203D01D
:100B18002369934240F006823948036823F0F803BA
:100B28006169F82292FAA2F2B2FA82F201FA02F2AA
:100B380013430360236813F0080F00F08D80A36946
:100B4800002B61D0012191FAA1F2B2FA82F22D4B69
:100B580013449B001960FFF7C3FE0546022393FA6E
:100B6800A3F293FAA3F293FAA3F2254A516A93FAED
:100B7800A3F3B3FA83F303F01F03012202FA03F38A
:100B88000B4269D1FFF7ACFE401B0228E6D90320CF
:100B9800CFE11B48036823F0F8036169F82292FA51
:100BA800A2F2B2FA82F201FA02F213430360C1E739
:100BB800012393FAA3F3B3FA83F303F1845303F500
:100BC80084139B0000221A60FFF78AFE0546022361
:100BD80093FAA3F30A4B1968022393FAA3F3B3FA1F
:100BE80083F303F01F03012202FA03F30B42A1D09F
:100BF800FFF776FE401B0228E9D9032099E100BFE0
:100C08000010024020819010012292FAA2F2B2FA5A
:100C180082F2B74B13449B0000221A60FFF760FE74
:100C28000546022393FAA3F293FAA3F293FAA3F2E6
:100C3800B04A516A93FAA3F3B3FA83F303F01F039C
:100C4800012202FA03F30B4206D0FFF749FE401BCC
:100C58000228E6D903206CE1236813F0040F00F0A2
:100C6800A980A44BDB6913F0805F20D1A14BDA691E
:100C780042F08052DA61DB6903F080530193019BF3
:100C880001259D4B1B6813F4807F12D0E368012B6C
:100C980023D073BB03F1804303F504331A6A22F0AF
:100CA80001021A621A6A22F004021A621AE0002586
:100CB800E7E7914A136843F480731360FFF710FE67
:100CC80006468D4B1B6813F4807FDFD1FFF708FEC3
:100CD800801B6428F5D903202BE1864A136A43F068
:100CE80001031362E368002B3CD0FFF7F9FD0646C9
:100CF8002BE0052B09D07F4B1A6A22F001021A62F9
:100D08001A6A22F004021A62ECE77A4B1A6A42F075
:100D180004021A621A6A42F001021A62E2E7754B8B
:100D2800196A022393FAA3F3B3FA83F303F01F03B8
:100D3800012202FA03F319423BD1FFF7D1FD801BD0
:100D480041F28833984200F2EF80022393FAA3F22B
:100D580093FAA3F3002BE2D1022393FAA3F3654B92
:100D6800596ADEE7FFF7BCFD064615E0614B196AD4
:100D7800022393FAA3F3B3FA83F303F01F030122C8
:100D880002FA03F3194214D0FFF7AAFD801B41F2BF
:100D98008833984200F2CA80022393FAA3F293FAA6
:100DA800A3F3002BE2D1022393FAA3F3514B596A20
:100DB800DEE7B5BBE369002B00F0BA804D4A526804
:100DC80002F00C02082A00F09980022B2FD04FF075
:100DD800807393FAA3F3B3FA83F303F1845303F50F
:100DE80084139B0000221A60FFF77AFD04464FF037
:100DF800007393FAA3F33F4B19684FF0007393FA0B
:100E0800A3F3B3FA83F303F01F03012202FA03F3F7
:100E180019426BD0FFF764FD001B0228E7D90320B5
:100E280087E0344AD36923F08053D361C2E74FF097
:100E3800807393FAA3F3B3FA83F303F1845303F5AE
:100E480084139B0000221A60FFF74AFD05464FF005
:100E5800007393FAA3F3274B19684FF0007393FAC2
:100E6800A3F3B3FA83F303F01F03012202FA03F397
:100E7800194206D0FFF734FD401B0228E7D90320AA
:100E880057E01C494B6823F47413626A206A0243D2
:100E980013434B604FF0807393FAA3F3B3FA83F3D1
:100EA80003F1845303F584139B0001221A60FFF7B2
:100EB80017FD04464FF0007393FAA3F30D4B19681E
:100EC8004FF0007393FAA3F3B3FA83F303F01F030D
:100ED800012202FA03F3194206D1FFF701FD001BB4
:100EE8000228E7D9032024E0002022E0002020E0A7
:100EF800208190100010024000700040012B1AD091
:100F0800104B5B6803F48031226A914215D103F4D7
:100F18007013626A934212D100200AE001207047E0
:100F2800012006E0012004E0032002E0032000E0A5
:100F3800002002B070BD0120FBE70120F9E7012085
:100F4800F7E700BF00100240164B5B6803F00C0285
:100F5800082A01D01448704703F470114FF4701236
:100F680092FAA2F2B2FA82F221FA02F20F49885CEE
:100F78000C4AD26A02F00F020F2191FAA1F1B1FADC
:100F880081F1CA400A498A5C13F4803F05D0064BB8
:100F9800B3FBF2F303FB00F07047064B03FB00F0D2
:100FA800704700BF0010024000127A009418000831
:100FB800A418000800093D00002800F0BE8070B5A4
:100FC8000D460446614B1B6803F007038B420BD2A6
:100FD8005E4A136823F007030B431360136803F09A
:100FE80007038B4240F0AB80236813F0020F06D052
:100FF800574A536823F0F003A1680B4353602368F2
:1010080013F0010F5AD06368012B2DD0022B40D06A
:10101800022292FAA2F24E4A1068022292FAA2F230
:10102800B2FA82F202F01F02012101FA02F2104222
:1010380000F0878046494A6822F0030213434B6058
:10104800FFF74EFC0646424B5B6803F00C036268F0
:10105800B3EB820F32D0FFF743FC801B41F2883399
:101068009842F0D9032067E04FF4003292FAA2F2D6
:10107800374A10684FF4003292FAA2F2B2FA82F2BA
:1010880002F01F02012101FA02F20242D2D101202C
:1010980052E04FF0007292FAA2F22D4A10684FF017
:1010A800007292FAA2F2B2FA82F202F01F02012151
:1010B80001FA02F21042BDD101203DE0234B1B682A
:1010C80003F00703AB420AD9204A136823F0070349
:1010D8002B431360136803F00703AB4233D1236833
:1010E80013F0040F06D01A4A536823F4E063E1684A
:1010F8000B435360236813F0080F07D0144A536852
:1011080023F46053216943EAC1035360FFF71CFFCE
:101118000F4B5B6803F0F003F02292FAA2F2B2FAE6
:1011280082F2D3400B4AD35CD8400B4B18600B4B70
:101138001868FFF791FB002070BD0120704701205F
:10114800FAE70120F8E70120F6E700BF0020024097
:1011580000100240B4180008080000200400002015
:10116800F0B583B00446036813F4803F48D0914B30
:10117800DB6913F0805F40F0D4808E4BDA6942F06F
:101188008052DA61DB6903F080530193019B0125EA
:10119800894B1B6813F4807F00F0C580854B1B6A60
:1011A80013F4407322D0626802F440729A421DD050
:1011B8008048016A21F440764FF4803393FAA3F211
:1011C800B2FA82F27D4F3A4492004FF0010CC2F815
:1011D80000C093FAA3F3B3FA83F33B449B000022C5
:1011E8001A60066211F0010F40F0B280714A136A6A
:1011F80023F4407361680B431362002D40F0CF80E5
:10120800236813F0010F06D06A4A136B23F0030317
:10121800A1680B431363236813F0020F06D0654AD5
:10122800136B23F44033E1680B431363236813F013
:10123800040F06D05F4A136B23F4402321690B4344
:101248001363236813F0200F06D05A4A136B23F058
:101258001003E1690B431363236813F4003F06D0BE
:10126800544A536823F48003A16B0B4353602368EB
:1012780013F0400F06D04F4A136B23F02003216A66
:101288000B431363236813F0080F06D0494A136B06
:1012980023F4401361690B431363236813F0100FA1
:1012A80006D0444A136B23F44003A1690B4313632C
:1012B800236813F4007F06D03E4A536823F40003E2
:1012C800E16A0B435360236813F0800F06D0394A54
:1012D800D36A23F4F873616A0B43D362236813F467
:1012E800807F06D0334AD36A23F47853A16A0B432C
:1012F800D362236813F4805F06D02E4A136B23F45D
:101308008073216B0B431363236813F4005F4DD084
:10131800284A136B23F40073616B0B43136300209B
:1013280045E0002534E7244A136843F480731360CA
:10133800FFF7D6FA0646204B1B6813F4807F7FF42C
:101348002DAFFFF7CDFA801B6428F4D903202EE0D7
:10135800FFF7C6FA064615E0164B196A022393FAF8
:10136800A3F3B3FA83F303F01F03012202FA03F392
:101378000B427FF43BAFFFF7B3FA801B41F288338F
:10138800984211D8022393FAA3F293FAA3F3002BFD
:10139800E2D1022393FAA3F3064B596ADEE7D36935
:1013A80023F08053D3612BE7032000E0002003B033
:1013B800F0BD00BF00100240007000400081901096
:1013C800F0B583B0002362E085685E000324B44072
:1013D80025EA0405CC68B4402C438460446824EAB8
:1013E8000C0C4C68C4F300149C4044EA0C044460A0
:1013F8005EE0DD08083550F8256003F007044FEA81
:10140800840C0F2404FA0CF426EA040E0C6904FA7E
:101418000CF444EA0E0440F8254060E0042400E09F
:10142800002404FA0EF42C430CF1020C524D45F83A
:101438002C40524C2568D44325EA02064F6817F41D
:10144800803F01D042EA05064C4D2E606D6804EAE3
:1014580005064F6817F4003F01D042EA0506474DDC
:101468006E60AD6804EA05064F6817F4801F01D066
:1014780042EA0506414DAE60ED682C404E6816F410
:10148800001F01D042EA05043C4AD46001330A68CF
:1014980032FA03F46ED04FF0010C0CFA03FC1CEA8C
:1014A8000202F3D04C6804F00304013C012C8BD9F0
:1014B8004C6804F00304032C0CD0C4685D004FF0A2
:1014C800030C0CFA05FC24EA0C0C8C68AC4044EACA
:1014D8000C04C4604C6804F00304022C89D004682E
:1014E8004FEA430E4FF0030C0CFA0EFC24EA0C0CE6
:1014F8004C6804F0030404FA0EF444EA0C04046093
:101508004C6814F4403FC1D01D4CA56945F0010555
:10151800A561A46904F001040194019C4FEA930CAD
:101528000CF10205144C54F8255003F003044FEA5B
:10153800840E0F2404FA0EF425EA0405B0F1904F46
:101548003FF46EAF0F4CA0420ED004F58064A04269
:101558000CD004F58064A0420AD004F58064A0424F
:101568003FF45CAF05245CE701245AE7022458E7FE
:10157800032456E703B0F0BD000001400004014019
:1015880000100240000400480AB18161704781627E
:1015980070470000074AD36823F4E0631B041B0C60
:1015A800000200F4E060034343F0BF6343F40033F8
:1015B800D360704700ED00E000B5194BDB68C3F35A
:1015C8000223C3F1070CBCF1040F28BF4FF0040C31
:1015D80003F1040EBEF1060F18D9033B4FF0FF3E8E
:1015E8000EFA0CFC21EA0C0199400EFA03F322EAE8
:1015F8000303194300280BDB0901C9B200F160405D
:1016080000F5614080F800135DF804FB0023E5E76E
:1016180000F00F000901C9B2024B1954F4E700BFEA
:1016280000ED00E014ED00E00138B0F1807F0BD24E
:101638004FF0E0235861054AF02182F8231000207A
:10164800986107221A6170470120704700ED00E099
:1016580000286FD010B50446436A33B94368B3F520
:10166800827F05D00023C36102E000230361436148
:101678000023A36294F85D30002B52D0022384F833
:101688005D302268136823F040031360E368B3F504
:10169800E06F4CD90022B3F5706F04D0B3F5E06F5A
:1016A80001D00023A362636803F48273A16801F484
:1016B80004410B43216901F002010B43616901F008
:1016C80001010B43A16901F400710B43E16901F0C9
:1016D80038010B43216A01F080010B43A16A01F430
:1016E800005120680B430360638B03F00403616AB5
:1016F80001F010010B43616B01F008010B43E16835
:1017080001F470610B43216813434B602268D3696D
:1017180023F40063D36100202066012384F85D3040
:1017280010BD84F85C302046FEF75AFFA6E74FF458
:101738008052B0E701207047002864D030B587B0E8
:10174800044690F8A9323BB1032384F8A9322068F3
:10175800FEF7AEFF00231FE080F8A832FEF774FF03
:10176800F2E75A1C02EB820104EBC1010120487028
:1017780002EB820104F8313003EB830104EBC10171
:10178800CB8602EB820C04EBCC0C00208CF8030017
:101798008863C8630864D3B260688342E1D30023D6
:1017A80016E003EB830204EBC202002182F8691100
:1017B80082F8683182F86B11C2F87811C2F87C118E
:1017C80003EB830204EBC202C2F880110133DBB2DF
:1017D8009842E6D8A4465CF8105BEE46BCE80F00D9
:1017E800AEE80F00DCF80030CEF80030231D0ECB39
:1017F8002846FEF767FF002084F82400012384F8B8
:10180800A93207B030BD012070470000034AD2F862
:10181800883043F47003C2F88830704700ED00E068
:10182800DFF834D00D480E490E4A002302E0D458A0
:10183800C4500433C4188C42F9D30B4A0B4C002310
:1018480001E013600432A242FBD3FFF7DFFFFEF78B
:1018580097FCFEF751FEFEE700A0002000000020E4
:101868000C000020CC1800080C000020C803002041
:10187800FEE70000F8B500BFF8BC08BC9E467047FC
:0C188800F8B500BFF8BC08BC9E467047D5
:1018940002030405060708090A0B0C0D0E0F1010AD
:1018A4000102030405060708090A0B0C0D0E0F10AC
:1018B40000000000000000000102030406070809FC
:0418C4009502000881
:0418C80071020008A1
:0C18CC00010000001000000000127A0073
:0400000508001829AE
:00000001FF
